BL51 BANKED LINKER/LOCATER V6.22                                                        04/22/2016  17:09:35  PAGE 1


BL51 BANKED LINKER/LOCATER V6.22, INVOKED BY:
C:\KEIL51\C51\BIN\BL51.EXE STARTUP.obj, main.obj TO RFID RAMSIZE (256)


MEMORY MODEL: SMALL


INPUT MODULES INCLUDED:
  STARTUP.obj (?C_STARTUP)
  main.obj (MAIN)
  C:\KEIL51\C51\LIB\C51S.LIB (?C_INIT)
  C:\KEIL51\C51\LIB\C51S.LIB (?C?CLDOPTR)


LINK MAP OF MODULE:  RFID (?C_STARTUP)


            TYPE    BASE      LENGTH    RELOCATION   SEGMENT NAME
            -----------------------------------------------------

            * * * * * * *   D A T A   M E M O R Y   * * * * * * *
            REG     0000H     0008H     ABSOLUTE     "REG BANK 0"
            DATA    0008H     0036H     UNIT         ?DT?MAIN
            DATA    003EH     000AH     UNIT         _DATA_GROUP_
            IDATA   0048H     0001H     UNIT         ?STACK

            * * * * * * *  X D A T A   M E M O R Y  * * * * * * *
            XDATA   0000H     001EH     UNIT         ?XD?MAIN

            * * * * * * *   C O D E   M E M O R Y   * * * * * * *
            CODE    0000H     0003H     ABSOLUTE     
            CODE    0003H     001EH     UNIT         ?PR?PASS?MAIN
                    0021H     0002H                  *** GAP ***
            CODE    0023H     0003H     ABSOLUTE     
            CODE    0026H     0343H     UNIT         ?PR?RFID?MAIN
            CODE    0369H     008CH     UNIT         ?C_C51STARTUP
            CODE    03F5H     0062H     UNIT         ?PR?UART_INTERRUPT_RECEIVE?MAIN
            CODE    0457H     004FH     UNIT         ?PR?_CHECKSUM?MAIN
            CODE    04A6H     0047H     UNIT         ?CO?MAIN
            CODE    04EDH     003DH     UNIT         ?PR?_SENDDATA?MAIN
            CODE    052AH     002DH     UNIT         ?C?LIB_CODE
            CODE    0557H     002BH     UNIT         ?PR?MAIN?MAIN
            CODE    0582H     001DH     UNIT         ?PR?_DELAYMS?MAIN
            CODE    059FH     001DH     UNIT         ?PR?INITPORT?MAIN
            CODE    05BCH     001CH     UNIT         ?PR?INITALL?MAIN
            CODE    05D8H     000FH     UNIT         ?PR?UARTINIT?MAIN
            CODE    05E7H     000EH     UNIT         ?PR?_SENDCHAR?MAIN
            CODE    05F5H     000AH     UNIT         ?C_INITSEG



OVERLAY MAP OF MODULE:   RFID (?C_STARTUP)


SEGMENT                                   DATA_GROUP 
  +--> CALLED SEGMENT                   START    LENGTH
-------------------------------------------------------
?C_C51STARTUP                           -----    -----
BL51 BANKED LINKER/LOCATER V6.22                                                      04/22/2016  17:09:35  PAGE 2


  +--> ?PR?MAIN?MAIN
  +--> ?C_INITSEG

?PR?MAIN?MAIN                           -----    -----
  +--> ?PR?INITALL?MAIN
  +--> ?PR?PASS?MAIN
  +--> ?PR?RFID?MAIN

?PR?INITALL?MAIN                        -----    -----
  +--> ?PR?INITPORT?MAIN
  +--> ?PR?_DELAYMS?MAIN
  +--> ?PR?UARTINIT?MAIN

?PR?_DELAYMS?MAIN                       0046H    0002H

?PR?PASS?MAIN                           -----    -----
  +--> ?PR?_DELAYMS?MAIN

?PR?RFID?MAIN                           003EH    0003H
  +--> ?PR?_DELAYMS?MAIN
  +--> ?CO?MAIN
  +--> ?PR?_SENDDATA?MAIN
  +--> ?PR?_CHECKSUM?MAIN

?PR?_SENDDATA?MAIN                      0041H    0005H
  +--> ?PR?_SENDCHAR?MAIN
  +--> ?PR?_DELAYMS?MAIN

?PR?_CHECKSUM?MAIN                      0041H    0003H



SYMBOL TABLE OF MODULE:  RFID (?C_STARTUP)

  VALUE           TYPE          NAME
  ----------------------------------

  -------         MODULE        ?C_STARTUP
  C:0369H         SEGMENT       ?C_C51STARTUP
  I:0048H         SEGMENT       ?STACK
  C:0000H         PUBLIC        ?C_STARTUP
  D:00E0H         SYMBOL        ACC
  D:00F0H         SYMBOL        B
  D:0083H         SYMBOL        DPH
  D:0082H         SYMBOL        DPL
  N:0000H         SYMBOL        IBPSTACK
  N:0100H         SYMBOL        IBPSTACKTOP
  N:0080H         SYMBOL        IDATALEN
  C:036CH         SYMBOL        IDATALOOP
  N:0000H         SYMBOL        PBPSTACK
  N:0100H         SYMBOL        PBPSTACKTOP
  N:0000H         SYMBOL        PDATALEN
  N:0000H         SYMBOL        PDATASTART
  N:0000H         SYMBOL        PPAGE
  N:0000H         SYMBOL        PPAGEENABLE
  D:00A0H         SYMBOL        PPAGE_SFR
  D:0081H         SYMBOL        SP
BL51 BANKED LINKER/LOCATER V6.22                                                      04/22/2016  17:09:35  PAGE 3


  C:0369H         SYMBOL        STARTUP1
  N:0000H         SYMBOL        XBPSTACK
  N:0000H         SYMBOL        XBPSTACKTOP
  N:0000H         SYMBOL        XDATALEN
  N:0000H         SYMBOL        XDATASTART
  C:0000H         LINE#         126
  C:0369H         LINE#         133
  C:036BH         LINE#         134
  C:036CH         LINE#         135
  C:036DH         LINE#         136
  C:036FH         LINE#         185
  C:0372H         LINE#         196
  -------         ENDMOD        ?C_STARTUP

  -------         MODULE        MAIN
  C:0000H         SYMBOL        _ICE_DUMMY_
  D:0092H         PUBLIC        P1M0
  D:0091H         PUBLIC        P1M1
  D:0080H         PUBLIC        P0
  D:00B2H         PUBLIC        P3M0
  D:0090H         PUBLIC        P1
  D:00B4H         PUBLIC        P4M0
  D:00B1H         PUBLIC        P3M1
  D:00A0H         PUBLIC        P2
  D:00B3H         PUBLIC        P4M1
  D:00B0H         PUBLIC        P3
  D:00C0H         PUBLIC        P4
  B:00A8H.7       PUBLIC        EA
  B:00B0H.2       PUBLIC        LED1
  B:00B0H.3       PUBLIC        LED2
  C:04F4H         PUBLIC        _SendData
  X:0000H         PUBLIC        UartRxBuf
  B:00B0H.4       PUBLIC        LED3
  D:0008H         PUBLIC        BeepCount
  C:05E7H         PUBLIC        _SendChar
  D:00A8H         PUBLIC        IE
  C:0461H         PUBLIC        _CheckSum
  B:00A8H.4       PUBLIC        ES
  C:0003H         PUBLIC        Pass
  D:00B8H         PUBLIC        IP
  B:0098H.0       PUBLIC        RI
  B:0098H.1       PUBLIC        TI
  C:04C6H         PUBLIC        Cmd_ReadId
  C:04A6H         PUBLIC        Cmd_WorkMode
  C:0026H         PUBLIC        RFID
  C:0557H         PUBLIC        main
  D:00BBH         PUBLIC        P4SW
  C:05BCH         PUBLIC        InitAll
  D:0099H         PUBLIC        SBUF
  B:0090H.1       PUBLIC        P11
  C:0586H         PUBLIC        _DelayMs
  B:0090H.2       PUBLIC        P12
  D:0098H         PUBLIC        SCON
  B:0090H.3       PUBLIC        P13
  C:05D8H         PUBLIC        UartInit
  D:0088H         PUBLIC        TCON
  B:0090H.4       PUBLIC        P14
BL51 BANKED LINKER/LOCATER V6.22                                                      04/22/2016  17:09:35  PAGE 4


  B:0090H.5       PUBLIC        P15
  B:00C0H.5       PUBLIC        P45
  C:059FH         PUBLIC        InitPort
  D:0009H         PUBLIC        buf
  D:008EH         PUBLIC        AUXR
  D:0025H         PUBLIC        RxDataFlag
  D:00E0H         PUBLIC        ACC
  D:0026H         PUBLIC        KeyPressCount
  D:0027H         PUBLIC        RxDataCount
  C:03F5H         PUBLIC        uart_interrupt_receive
  D:0028H         PUBLIC        BPass
  C:04CEH         PUBLIC        Cmd_ReadBlock
  D:0029H         PUBLIC        UartRxDataFlag
  D:009CH         PUBLIC        BRT
  C:04D6H         PUBLIC        Cmd_WriteBlock
  D:00A2H         PUBLIC        AUXR1
  D:002AH         PUBLIC        CardData
  D:00D0H         PUBLIC        PSW
  C:0582H         SYMBOL        L?0116
  -------         PROC          L?0115
  -------         ENDPROC       L?0115
  C:0582H         SYMBOL        L?0116
  -------         PROC          _DELAYMS
  D:0006H         SYMBOL        tms
  -------         DO            
  D:0046H         SYMBOL        i
  D:0047H         SYMBOL        j
  -------         ENDDO         
  C:0586H         LINE#         35
  C:0586H         LINE#         36
  C:0586H         LINE#         38
  C:0590H         LINE#         39
  C:0590H         LINE#         43
  C:0593H         LINE#         44
  C:0596H         LINE#         46
  C:0596H         LINE#         47
  C:0599H         LINE#         48
  C:059CH         LINE#         49
  C:059EH         LINE#         50
  -------         ENDPROC       _DELAYMS
  -------         PROC          PASS
  C:0003H         LINE#         52
  C:0003H         LINE#         53
  C:0003H         LINE#         54
  C:0005H         LINE#         55
  C:0007H         LINE#         56
  C:0009H         LINE#         57
  C:000BH         LINE#         58
  C:0012H         LINE#         59
  C:0014H         LINE#         60
  C:0016H         LINE#         61
  C:0018H         LINE#         62
  C:001AH         LINE#         63
  -------         ENDPROC       PASS
  C:0457H         SYMBOL        L?0114
  -------         PROC          L?0113
  -------         ENDPROC       L?0113
BL51 BANKED LINKER/LOCATER V6.22                                                      04/22/2016  17:09:35  PAGE 5


  C:0457H         SYMBOL        L?0114
  -------         PROC          _CHECKSUM
  D:0041H         SYMBOL        ptr
  D:0005H         SYMBOL        len
  -------         DO            
  D:0006H         SYMBOL        i
  D:0007H         SYMBOL        checksum
  -------         ENDDO         
  C:0461H         LINE#         67
  C:0467H         LINE#         68
  C:0467H         LINE#         71
  C:0469H         LINE#         72
  C:0472H         LINE#         73
  C:0472H         LINE#         74
  C:0482H         LINE#         75
  C:0485H         LINE#         76
  C:04A0H         LINE#         77
  C:04A3H         LINE#         79
  C:04A5H         LINE#         80
  -------         ENDPROC       _CHECKSUM
  -------         PROC          INITPORT
  C:059FH         LINE#         82
  C:059FH         LINE#         83
  C:059FH         LINE#         84
  C:05A2H         LINE#         85
  C:05A5H         LINE#         86
  C:05A7H         LINE#         87
  C:05A9H         LINE#         88
  C:05ABH         LINE#         89
  C:05ADH         LINE#         91
  C:05AFH         LINE#         92
  C:05B1H         LINE#         94
  C:05B3H         LINE#         95
  C:05B6H         LINE#         96
  C:05B9H         LINE#         97
  C:05BBH         LINE#         98
  -------         ENDPROC       INITPORT
  -------         PROC          _SENDCHAR
  D:0007H         SYMBOL        sentData
  C:05E7H         LINE#         124
  C:05E7H         LINE#         125
  C:05E7H         LINE#         126
  C:05E9H         LINE#         127
  C:05EBH         LINE#         128
  C:05EDH         LINE#         129
  C:05F0H         LINE#         130
  C:05F2H         LINE#         131
  C:05F4H         LINE#         132
  -------         ENDPROC       _SENDCHAR
  C:04EFH         SYMBOL        L?0118
  -------         PROC          L?0117
  -------         ENDPROC       L?0117
  C:04EFH         SYMBOL        L?0118
  -------         PROC          _SENDDATA
  D:0041H         SYMBOL        p
  D:0044H         SYMBOL        len
  -------         DO            
BL51 BANKED LINKER/LOCATER V6.22                                                      04/22/2016  17:09:35  PAGE 6


  D:0006H         SYMBOL        i
  -------         ENDDO         
  C:04F4H         LINE#         134
  C:04FEH         LINE#         135
  C:04FEH         LINE#         137
  C:0500H         LINE#         138
  C:050BH         LINE#         139
  C:050BH         LINE#         140
  C:051DH         LINE#         141
  C:0520H         LINE#         142
  C:0527H         LINE#         143
  C:0529H         LINE#         144
  -------         ENDPROC       _SENDDATA
  -------         PROC          UARTINIT
  C:05D8H         LINE#         146
  C:05D8H         LINE#         147
  C:05D8H         LINE#         148
  C:05DBH         LINE#         149
  C:05DEH         LINE#         151
  C:05E1H         LINE#         152
  C:05E4H         LINE#         153
  C:05E6H         LINE#         154
  -------         ENDPROC       UARTINIT
  -------         PROC          UART_INTERRUPT_RECEIVE
  C:03F5H         LINE#         164
  C:0402H         LINE#         166
  C:0404H         LINE#         167
  C:0404H         LINE#         168
  C:0404H         LINE#         169
  C:0406H         LINE#         170
  C:040AH         LINE#         171
  C:040AH         LINE#         172
  C:0418H         LINE#         173
  C:041AH         LINE#         174
  C:0421H         LINE#         175
  C:0421H         LINE#         176
  C:0424H         LINE#         177
  C:0424H         LINE#         178
  C:0437H         LINE#         179
  C:0437H         LINE#         180
  C:043AH         LINE#         181
  C:043AH         LINE#         182
  C:043CH         LINE#         183
  C:0447H         LINE#         184
  C:0447H         LINE#         185
  C:044AH         LINE#         186
  C:044AH         LINE#         187
  C:044AH         LINE#         188
  C:044AH         LINE#         189
  C:044CH         LINE#         190
  -------         ENDPROC       UART_INTERRUPT_RECEIVE
  -------         PROC          INITALL
  C:05BCH         LINE#         192
  C:05BCH         LINE#         193
  C:05BCH         LINE#         194
  C:05BFH         LINE#         195
  C:05C6H         LINE#         196
BL51 BANKED LINKER/LOCATER V6.22                                                      04/22/2016  17:09:35  PAGE 7


  C:05C8H         LINE#         197
  C:05CBH         LINE#         198
  C:05D2H         LINE#         200
  C:05D4H         LINE#         201
  C:05D7H         LINE#         203
  -------         ENDPROC       INITALL
  -------         PROC          RFID
  -------         DO            
  D:003EH         SYMBOL        check
  D:003FH         SYMBOL        pktlen
  D:0040H         SYMBOL        i
  -------         ENDDO         
  C:0026H         LINE#         205
  C:0026H         LINE#         206
  C:0026H         LINE#         210
  C:002CH         LINE#         211
  C:002CH         LINE#         212
  C:002FH         LINE#         213
  C:0032H         LINE#         214
  C:0049H         LINE#         216
  C:004BH         LINE#         217
  C:0052H         LINE#         218
  C:0055H         LINE#         219
  C:0058H         LINE#         220
  C:005FH         LINE#         221
  C:005FH         LINE#         222
  C:0065H         LINE#         223
  C:006FH         LINE#         224
  C:006FH         LINE#         225
  C:0083H         LINE#         226
  C:0087H         LINE#         227
  C:0087H         LINE#         228
  C:008CH         LINE#         229
  C:0093H         LINE#         230
  C:0093H         LINE#         232
  C:00BEH         LINE#         233
  C:00BEH         LINE#         234
  C:00BEH         LINE#         235
  C:00C1H         LINE#         237
  C:00C1H         LINE#         238
  C:00C1H         LINE#         239
  C:00C1H         LINE#         240
  C:00C1H         LINE#         241
  C:00C7H         LINE#         242
  C:00C7H         LINE#         243
  C:00CAH         LINE#         244
  C:00D0H         LINE#         245
  C:00D0H         LINE#         246
  C:00DAH         LINE#         247
  C:00DDH         LINE#         248
  C:00E4H         LINE#         249
  C:00E4H         LINE#         250
  C:00EAH         LINE#         251
  C:00F4H         LINE#         252
  C:00F4H         LINE#         253
  C:0108H         LINE#         254
  C:010CH         LINE#         255
BL51 BANKED LINKER/LOCATER V6.22                                                      04/22/2016  17:09:35  PAGE 8


  C:010CH         LINE#         256
  C:0111H         LINE#         257
  C:0118H         LINE#         258
  C:0118H         LINE#         260
  C:0143H         LINE#         261
  C:0143H         LINE#         262
  C:0145H         LINE#         263
  C:0145H         LINE#         264
  C:0153H         LINE#         265
  C:015AH         LINE#         266
  C:015AH         LINE#         267
  C:015DH         LINE#         269
  C:015DH         LINE#         270
  C:015DH         LINE#         271
  C:015DH         LINE#         272
  C:015DH         LINE#         273
  C:015DH         LINE#         274
  C:0163H         LINE#         275
  C:0163H         LINE#         276
  C:0166H         LINE#         277
  C:016CH         LINE#         278
  C:016CH         LINE#         279
  C:0176H         LINE#         280
  C:0179H         LINE#         281
  C:0180H         LINE#         282
  C:0180H         LINE#         283
  C:0186H         LINE#         284
  C:0190H         LINE#         285
  C:0190H         LINE#         286
  C:01A4H         LINE#         287
  C:01A8H         LINE#         288
  C:01A8H         LINE#         289
  C:01ADH         LINE#         290
  C:01B4H         LINE#         291
  C:01B4H         LINE#         293
  C:01DFH         LINE#         294
  C:01DFH         LINE#         295
  C:01E1H         LINE#         296
  C:01E1H         LINE#         297
  C:01EFH         LINE#         298
  C:01F6H         LINE#         299
  C:01F6H         LINE#         300
  C:01F9H         LINE#         302
  C:01F9H         LINE#         303
  C:01F9H         LINE#         304
  C:01F9H         LINE#         305
  C:01F9H         LINE#         306
  C:01F9H         LINE#         307
  C:01FFH         LINE#         308
  C:01FFH         LINE#         309
  C:0202H         LINE#         310
  C:0208H         LINE#         311
  C:0208H         LINE#         312
  C:0214H         LINE#         313
  C:0217H         LINE#         314
  C:021EH         LINE#         315
  C:021EH         LINE#         316
BL51 BANKED LINKER/LOCATER V6.22                                                      04/22/2016  17:09:35  PAGE 9


  C:0224H         LINE#         317
  C:022EH         LINE#         318
  C:022EH         LINE#         319
  C:0242H         LINE#         320
  C:0246H         LINE#         321
  C:0246H         LINE#         322
  C:024BH         LINE#         323
  C:0252H         LINE#         324
  C:0252H         LINE#         326
  C:027DH         LINE#         327
  C:027DH         LINE#         328
  C:027DH         LINE#         329
  C:0280H         LINE#         331
  C:0280H         LINE#         332
  C:0280H         LINE#         333
  C:0280H         LINE#         334
  C:0280H         LINE#         335
  C:0280H         LINE#         342
  C:0280H         LINE#         343
  C:0287H         LINE#         344
  C:0287H         LINE#         345
  C:028DH         LINE#         346
  C:0297H         LINE#         347
  C:0297H         LINE#         348
  C:02ABH         LINE#         349
  C:02AFH         LINE#         350
  C:02AFH         LINE#         351
  C:02B4H         LINE#         352
  C:02BBH         LINE#         353
  C:02BBH         LINE#         355
  C:02D7H         LINE#         356
  C:02D7H         LINE#         357
  C:02D9H         LINE#         358
  C:02D9H         LINE#         359
  C:02E7H         LINE#         360
  C:02EEH         LINE#         362
  C:02F1H         LINE#         363
  C:02F5H         LINE#         365
  C:02F5H         LINE#         367
  C:0311H         LINE#         368
  C:0311H         LINE#         369
  C:0313H         LINE#         370
  C:0313H         LINE#         371
  C:0321H         LINE#         372
  C:0328H         LINE#         374
  C:032BH         LINE#         375
  C:032FH         LINE#         377
  C:032FH         LINE#         379
  C:034BH         LINE#         380
  C:034BH         LINE#         381
  C:034DH         LINE#         382
  C:034DH         LINE#         383
  C:035BH         LINE#         384
  C:0362H         LINE#         386
  C:0365H         LINE#         387
  C:0368H         LINE#         389
  C:0368H         LINE#         390
BL51 BANKED LINKER/LOCATER V6.22                                                      04/22/2016  17:09:35  PAGE 10


  C:0368H         LINE#         391
  C:0368H         LINE#         392
  C:0368H         LINE#         393
  -------         ENDPROC       RFID
  -------         PROC          MAIN
  -------         DO            
  D:0007H         SYMBOL        i
  -------         ENDDO         
  C:0557H         LINE#         397
  C:0557H         LINE#         398
  C:0557H         LINE#         400
  C:055AH         LINE#         401
  C:055DH         LINE#         402
  C:0560H         LINE#         403
  C:0560H         LINE#         404
  C:056CH         LINE#         405
  C:056CH         LINE#         406
  C:056CH         LINE#         407
  C:056FH         LINE#         408
  C:0573H         LINE#         409
  C:0573H         LINE#         410
  C:0576H         LINE#         411
  C:057DH         LINE#         412
  -------         ENDPROC       MAIN
  -------         ENDMOD        MAIN

  -------         MODULE        ?C?CLDOPTR
  C:052AH         PUBLIC        ?C?CLDOPTR
  -------         ENDMOD        ?C?CLDOPTR

Program Size: data=73.0 xdata=30 code=1533
LINK/LOCATE RUN COMPLETE.  0 WARNING(S),  0 ERROR(S)
